{"contracts/hackatonV1.sol":{"hackaton":{"abi":[{"inputs":[{"internalType":"string","name":"name_","type":"string"},{"internalType":"string","name":"description_","type":"string"},{"internalType":"uint256","name":"participationLimit_","type":"uint256"},{"internalType":"uint256","name":"judgeLimit_","type":"uint256"},{"internalType":"uint256","name":"durationDays_","type":"uint256"}],"stateMutability":"nonpayable","type":"constructor"},{"inputs":[{"internalType":"address","name":"owner_","type":"address"},{"internalType":"string","name":"name_","type":"string"},{"internalType":"string","name":"description_","type":"string"},{"internalType":"bool","name":"approve_","type":"bool"}],"name":"newJudge","outputs":[],"stateMutability":"nonpayable","type":"function"},{"inputs":[{"internalType":"address","name":"owner_","type":"address"},{"internalType":"address[]","name":"participants_","type":"address[]"},{"internalType":"string[]","name":"names_","type":"string[]"},{"internalType":"string","name":"description_","type":"string"},{"internalType":"bool","name":"approve_","type":"bool"}],"name":"newTeam","outputs":[],"stateMutability":"nonpayable","type":"function"},{"inputs":[],"name":"setWin","outputs":[{"internalType":"address","name":"","type":"address"}],"stateMutability":"view","type":"function"},{"inputs":[],"name":"totalTeams","outputs":[{"internalType":"uint256","name":"","type":"uint256"}],"stateMutability":"view","type":"function"},{"inputs":[{"internalType":"address","name":"team_","type":"address"}],"name":"vote","outputs":[],"stateMutability":"nonpayable","type":"function"}],"evm":{"bytecode":{"linkReferences":{},"object":"608060405260006006553480156200001657600080fd5b5060405162001adf38038062001adf83398181016040528101906200003c91906200029e565b326000806101000a81548173ffffffffffffffffffffffffffffffffffffffff021916908373ffffffffffffffffffffffffffffffffffffffff16021790555084600190816200008d9190620005a5565b5083600290816200009f9190620005a5565b5082600381905550816004819055506201518081620000bf9190620006bb565b600581905550505050505062000706565b6000604051905090565b600080fd5b600080fd5b600080fd5b600080fd5b6000601f19601f8301169050919050565b7f4e487b7100000000000000000000000000000000000000000000000000000000600052604160045260246000fd5b6200013982620000ee565b810181811067ffffffffffffffff821117156200015b576200015a620000ff565b5b80604052505050565b600062000170620000d0565b90506200017e82826200012e565b919050565b600067ffffffffffffffff821115620001a157620001a0620000ff565b5b620001ac82620000ee565b9050602081019050919050565b60005b83811015620001d9578082015181840152602081019050620001bc565b60008484015250505050565b6000620001fc620001f68462000183565b62000164565b9050828152602081018484840111156200021b576200021a620000e9565b5b62000228848285620001b9565b509392505050565b600082601f830112620002485762000247620000e4565b5b81516200025a848260208601620001e5565b91505092915050565b6000819050919050565b620002788162000263565b81146200028457600080fd5b50565b60008151905062000298816200026d565b92915050565b600080600080600060a08688031215620002bd57620002bc620000da565b5b600086015167ffffffffffffffff811115620002de57620002dd620000df565b5b620002ec8882890162000230565b955050602086015167ffffffffffffffff81111562000310576200030f620000df565b5b6200031e8882890162000230565b9450506040620003318882890162000287565b9350506060620003448882890162000287565b9250506080620003578882890162000287565b9150509295509295909350565b600081519050919050565b7f4e487b7100000000000000000000000000000000000000000000000000000000600052602260045260246000fd5b60006002820490506001821680620003b757607f821691505b602082108103620003cd57620003cc6200036f565b5b50919050565b60008190508160005260206000209050919050565b60006020601f8301049050919050565b600082821b905092915050565b600060088302620004377fffffffffffffffffffffffffffffffffffffffffffffffffffffffffffffffff82620003f8565b620004438683620003f8565b95508019841693508086168417925050509392505050565b6000819050919050565b600062000486620004806200047a8462000263565b6200045b565b62000263565b9050919050565b6000819050919050565b620004a28362000465565b620004ba620004b1826200048d565b84845462000405565b825550505050565b600090565b620004d1620004c2565b620004de81848462000497565b505050565b5b818110156200050657620004fa600082620004c7565b600181019050620004e4565b5050565b601f82111562000555576200051f81620003d3565b6200052a84620003e8565b810160208510156200053a578190505b620005526200054985620003e8565b830182620004e3565b50505b505050565b600082821c905092915050565b60006200057a600019846008026200055a565b1980831691505092915050565b600062000595838362000567565b9150826002028217905092915050565b620005b08262000364565b67ffffffffffffffff811115620005cc57620005cb620000ff565b5b620005d882546200039e565b620005e58282856200050a565b600060209050601f8311600181146200061d576000841562000608578287015190505b62000614858262000587565b86555062000684565b601f1984166200062d86620003d3565b60005b82811015620006575784890151825560018201915060208501945060208101905062000630565b8683101562000677578489015162000673601f89168262000567565b8355505b6001600288020188555050505b505050505050565b7f4e487b7100000000000000000000000000000000000000000000000000000000600052601160045260246000fd5b6000620006c88262000263565b9150620006d58362000263565b9250828202620006e58162000263565b91508282048414831517620006ff57620006fe6200068c565b5b5092915050565b6113c980620007166000396000f3fe608060405234801561001057600080fd5b50600436106100575760003560e01c806310de07441461005c57806343c4a0751461007a5780634e99862d14610096578063654c6daf146100b25780636dd7d8ea146100d0575b600080fd5b6100646100ec565b6040516100719190610996565b60405180910390f35b610094600480360381019061008f9190610d18565b6102a0565b005b6100b060048036038101906100ab9190610de7565b6104aa565b005b6100ba61064c565b6040516100c79190610e9f565b60405180910390f35b6100ea60048036038101906100e59190610eba565b610656565b005b60008060009054906101000a900473ffffffffffffffffffffffffffffffffffffffff1673ffffffffffffffffffffffffffffffffffffffff163373ffffffffffffffffffffffffffffffffffffffff161461017d576040517f08c379a000000000000000000000000000000000000000000000000000000000815260040161017490610f44565b60405180910390fd5b6000600760008154811061019457610193610f64565b5b9060005260206000200160009054906101000a900473ffffffffffffffffffffffffffffffffffffffff16905060005b600780549050811015610298578173ffffffffffffffffffffffffffffffffffffffff16600782815481106101fc576101fb610f64565b5b9060005260206000200160009054906101000a900473ffffffffffffffffffffffffffffffffffffffff1673ffffffffffffffffffffffffffffffffffffffff161115610285576007818154811061025757610256610f64565b5b9060005260206000200160009054906101000a900473ffffffffffffffffffffffffffffffffffffffff1691505b808061029090610fc2565b9150506101c4565b508091505090565b60008054906101000a900473ffffffffffffffffffffffffffffffffffffffff1673ffffffffffffffffffffffffffffffffffffffff163373ffffffffffffffffffffffffffffffffffffffff161461032e576040517f08c379a000000000000000000000000000000000000000000000000000000000815260040161032590610f44565b60405180910390fd5b600160066000828254610341919061100a565b925050819055506040518060c00160405280600654815260200185815260200184815260200183815260200182151581526020016000815250600960008773ffffffffffffffffffffffffffffffffffffffff1673ffffffffffffffffffffffffffffffffffffffff1681526020019081526020016000206000820151816000015560208201518160010190805190602001906103df9291906107f1565b5060408201518160020190805190602001906103fc92919061087b565b5060608201518160030190816104129190611255565b5060808201518160040160006101000a81548160ff02191690831515021790555060a082015181600501559050506007859080600181540180825580915050600190039060005260206000200160009091909190916101000a81548173ffffffffffffffffffffffffffffffffffffffff021916908373ffffffffffffffffffffffffffffffffffffffff1602179055505050505050565b60008054906101000a900473ffffffffffffffffffffffffffffffffffffffff1673ffffffffffffffffffffffffffffffffffffffff163373ffffffffffffffffffffffffffffffffffffffff1614610538576040517f08c379a000000000000000000000000000000000000000000000000000000000815260040161052f90610f44565b60405180910390fd5b60405180608001604052808573ffffffffffffffffffffffffffffffffffffffff168152602001848152602001838152602001821515815250600860008673ffffffffffffffffffffffffffffffffffffffff1673ffffffffffffffffffffffffffffffffffffffff16815260200190815260200160002060008201518160000160006101000a81548173ffffffffffffffffffffffffffffffffffffffff021916908373ffffffffffffffffffffffffffffffffffffffff160217905550602082015181600101908161060c9190611255565b5060408201518160020190816106229190611255565b5060608201518160030160006101000a81548160ff02191690831515021790555090505050505050565b6000600654905090565b600860003373ffffffffffffffffffffffffffffffffffffffff1673ffffffffffffffffffffffffffffffffffffffff16815260200190815260200160002060030160009054906101000a900460ff166106e5576040517f08c379a00000000000000000000000000000000000000000000000000000000081526004016106dc90611373565b60405180910390fd5b600a60003373ffffffffffffffffffffffffffffffffffffffff1673ffffffffffffffffffffffffffffffffffffffff16815260200190815260200160002060009054906101000a900460ff161561073c57600080fd5b6001600a60003373ffffffffffffffffffffffffffffffffffffffff1673ffffffffffffffffffffffffffffffffffffffff16815260200190815260200160002060006101000a81548160ff0219169083151502179055506001600960008373ffffffffffffffffffffffffffffffffffffffff1673ffffffffffffffffffffffffffffffffffffffff16815260200190815260200160002060050160008282546107e7919061100a565b9250508190555050565b82805482825590600052602060002090810192821561086a579160200282015b828111156108695782518260006101000a81548173ffffffffffffffffffffffffffffffffffffffff021916908373ffffffffffffffffffffffffffffffffffffffff16021790555091602001919060010190610811565b5b50905061087791906108d4565b5090565b8280548282559060005260206000209081019282156108c3579160200282015b828111156108c25782518290816108b29190611255565b509160200191906001019061089b565b5b5090506108d091906108f1565b5090565b5b808211156108ed5760008160009055506001016108d5565b5090565b5b8082111561091157600081816109089190610915565b506001016108f2565b5090565b50805461092190611078565b6000825580601f106109335750610952565b601f01602090049060005260206000209081019061095191906108d4565b5b50565b600073ffffffffffffffffffffffffffffffffffffffff82169050919050565b600061098082610955565b9050919050565b61099081610975565b82525050565b60006020820190506109ab6000830184610987565b92915050565b6000604051905090565b600080fd5b600080fd5b6109ce81610975565b81146109d957600080fd5b50565b6000813590506109eb816109c5565b92915050565b600080fd5b6000601f19601f8301169050919050565b7f4e487b7100000000000000000000000000000000000000000000000000000000600052604160045260246000fd5b610a3f826109f6565b810181811067ffffffffffffffff82111715610a5e57610a5d610a07565b5b80604052505050565b6000610a716109b1565b9050610a7d8282610a36565b919050565b600067ffffffffffffffff821115610a9d57610a9c610a07565b5b602082029050602081019050919050565b600080fd5b6000610ac6610ac184610a82565b610a67565b90508083825260208201905060208402830185811115610ae957610ae8610aae565b5b835b81811015610b125780610afe88826109dc565b845260208401935050602081019050610aeb565b5050509392505050565b600082601f830112610b3157610b306109f1565b5b8135610b41848260208601610ab3565b91505092915050565b600067ffffffffffffffff821115610b6557610b64610a07565b5b602082029050602081019050919050565b600080fd5b600067ffffffffffffffff821115610b9657610b95610a07565b5b610b9f826109f6565b9050602081019050919050565b82818337600083830152505050565b6000610bce610bc984610b7b565b610a67565b905082815260208101848484011115610bea57610be9610b76565b5b610bf5848285610bac565b509392505050565b600082601f830112610c1257610c116109f1565b5b8135610c22848260208601610bbb565b91505092915050565b6000610c3e610c3984610b4a565b610a67565b90508083825260208201905060208402830185811115610c6157610c60610aae565b5b835b81811015610ca857803567ffffffffffffffff811115610c8657610c856109f1565b5b808601610c938982610bfd565b85526020850194505050602081019050610c63565b5050509392505050565b600082601f830112610cc757610cc66109f1565b5b8135610cd7848260208601610c2b565b91505092915050565b60008115159050919050565b610cf581610ce0565b8114610d0057600080fd5b50565b600081359050610d1281610cec565b92915050565b600080600080600060a08688031215610d3457610d336109bb565b5b6000610d42888289016109dc565b955050602086013567ffffffffffffffff811115610d6357610d626109c0565b5b610d6f88828901610b1c565b945050604086013567ffffffffffffffff811115610d9057610d8f6109c0565b5b610d9c88828901610cb2565b935050606086013567ffffffffffffffff811115610dbd57610dbc6109c0565b5b610dc988828901610bfd565b9250506080610dda88828901610d03565b9150509295509295909350565b60008060008060808587031215610e0157610e006109bb565b5b6000610e0f878288016109dc565b945050602085013567ffffffffffffffff811115610e3057610e2f6109c0565b5b610e3c87828801610bfd565b935050604085013567ffffffffffffffff811115610e5d57610e5c6109c0565b5b610e6987828801610bfd565b9250506060610e7a87828801610d03565b91505092959194509250565b6000819050919050565b610e9981610e86565b82525050565b6000602082019050610eb46000830184610e90565b92915050565b600060208284031215610ed057610ecf6109bb565b5b6000610ede848285016109dc565b91505092915050565b600082825260208201905092915050565b7f596f757265206e6f74206f776e65720000000000000000000000000000000000600082015250565b6000610f2e600f83610ee7565b9150610f3982610ef8565b602082019050919050565b60006020820190508181036000830152610f5d81610f21565b9050919050565b7f4e487b7100000000000000000000000000000000000000000000000000000000600052603260045260246000fd5b7f4e487b7100000000000000000000000000000000000000000000000000000000600052601160045260246000fd5b6000610fcd82610e86565b91507fffffffffffffffffffffffffffffffffffffffffffffffffffffffffffffffff8203610fff57610ffe610f93565b5b600182019050919050565b600061101582610e86565b915061102083610e86565b925082820190508082111561103857611037610f93565b5b92915050565b600081519050919050565b7f4e487b7100000000000000000000000000000000000000000000000000000000600052602260045260246000fd5b6000600282049050600182168061109057607f821691505b6020821081036110a3576110a2611049565b5b50919050565b60008190508160005260206000209050919050565b60006020601f8301049050919050565b600082821b905092915050565b60006008830261110b7fffffffffffffffffffffffffffffffffffffffffffffffffffffffffffffffff826110ce565b61111586836110ce565b95508019841693508086168417925050509392505050565b6000819050919050565b600061115261114d61114884610e86565b61112d565b610e86565b9050919050565b6000819050919050565b61116c83611137565b61118061117882611159565b8484546110db565b825550505050565b600090565b611195611188565b6111a0818484611163565b505050565b5b818110156111c4576111b960008261118d565b6001810190506111a6565b5050565b601f821115611209576111da816110a9565b6111e3846110be565b810160208510156111f2578190505b6112066111fe856110be565b8301826111a5565b50505b505050565b600082821c905092915050565b600061122c6000198460080261120e565b1980831691505092915050565b6000611245838361121b565b9150826002028217905092915050565b61125e8261103e565b67ffffffffffffffff81111561127757611276610a07565b5b6112818254611078565b61128c8282856111c8565b600060209050601f8311600181146112bf57600084156112ad578287015190505b6112b78582611239565b86555061131f565b601f1984166112cd866110a9565b60005b828110156112f5578489015182556001820191506020850194506020810190506112d0565b86831015611312578489015161130e601f89168261121b565b8355505b6001600288020188555050505b505050505050565b7f596f757265206e6f74206a756467650000000000000000000000000000000000600082015250565b600061135d600f83610ee7565b915061136882611327565b602082019050919050565b6000602082019050818103600083015261138c81611350565b905091905056fea26469706673582212204e4a6aedbaf2e8f178a1c7658e1b652a173729426e1ea474382540a120d39d7464736f6c63430008110033","opcodes":"PUSH1 0x80 PUSH1 0x40 MSTORE PUSH1 0x0 PUSH1 0x6 SSTORE CALLVALUE DUP1 ISZERO PUSH3 0x16 JUMPI PUSH1 0x0 DUP1 REVERT JUMPDEST POP PUSH1 0x40 MLOAD PUSH3 0x1ADF CODESIZE SUB DUP1 PUSH3 0x1ADF DUP4 CODECOPY DUP2 DUP2 ADD PUSH1 0x40 MSTORE DUP2 ADD SWAP1 PUSH3 0x3C SWAP2 SWAP1 PUSH3 0x29E JUMP JUMPDEST ORIGIN PUSH1 0x0 DUP1 PUSH2 0x100 EXP DUP2 SLOAD DUP2 PUSH20 0xFFFFFFFFFFFFFFFFFFFFFFFFFFFFFFFFFFFFFFFF MUL NOT AND SWAP1 DUP4 PUSH20 0xFFFFFFFFFFFFFFFFFFFFFFFFFFFFFFFFFFFFFFFF AND MUL OR SWAP1 SSTORE POP DUP5 PUSH1 0x1 SWAP1 DUP2 PUSH3 0x8D SWAP2 SWAP1 PUSH3 0x5A5 JUMP JUMPDEST POP DUP4 PUSH1 0x2 SWAP1 DUP2 PUSH3 0x9F SWAP2 SWAP1 PUSH3 0x5A5 JUMP JUMPDEST POP DUP3 PUSH1 0x3 DUP2 SWAP1 SSTORE POP DUP2 PUSH1 0x4 DUP2 SWAP1 SSTORE POP PUSH3 0x15180 DUP2 PUSH3 0xBF SWAP2 SWAP1 PUSH3 0x6BB JUMP JUMPDEST PUSH1 0x5 DUP2 SWAP1 SSTORE POP POP POP POP POP POP PUSH3 0x706 JUMP JUMPDEST PUSH1 0x0 PUSH1 0x40 MLOAD SWAP1 POP SWAP1 JUMP JUMPDEST PUSH1 0x0 DUP1 REVERT JUMPDEST PUSH1 0x0 DUP1 REVERT JUMPDEST PUSH1 0x0 DUP1 REVERT JUMPDEST PUSH1 0x0 DUP1 REVERT JUMPDEST PUSH1 0x0 PUSH1 0x1F NOT PUSH1 0x1F DUP4 ADD AND SWAP1 POP SWAP2 SWAP1 POP JUMP JUMPDEST PUSH32 0x4E487B7100000000000000000000000000000000000000000000000000000000 PUSH1 0x0 MSTORE PUSH1 0x41 PUSH1 0x4 MSTORE PUSH1 0x24 PUSH1 0x0 REVERT JUMPDEST PUSH3 0x139 DUP3 PUSH3 0xEE JUMP JUMPDEST DUP2 ADD DUP2 DUP2 LT PUSH8 0xFFFFFFFFFFFFFFFF DUP3 GT OR ISZERO PUSH3 0x15B JUMPI PUSH3 0x15A PUSH3 0xFF JUMP JUMPDEST JUMPDEST DUP1 PUSH1 0x40 MSTORE POP POP POP JUMP JUMPDEST PUSH1 0x0 PUSH3 0x170 PUSH3 0xD0 JUMP JUMPDEST SWAP1 POP PUSH3 0x17E DUP3 DUP3 PUSH3 0x12E JUMP JUMPDEST SWAP2 SWAP1 POP JUMP JUMPDEST PUSH1 0x0 PUSH8 0xFFFFFFFFFFFFFFFF DUP3 GT ISZERO PUSH3 0x1A1 JUMPI PUSH3 0x1A0 PUSH3 0xFF JUMP JUMPDEST JUMPDEST PUSH3 0x1AC DUP3 PUSH3 0xEE JUMP JUMPDEST SWAP1 POP PUSH1 0x20 DUP2 ADD SWAP1 POP SWAP2 SWAP1 POP JUMP JUMPDEST PUSH1 0x0 JUMPDEST DUP4 DUP2 LT ISZERO PUSH3 0x1D9 JUMPI DUP1 DUP3 ADD MLOAD DUP2 DUP5 ADD MSTORE PUSH1 0x20 DUP2 ADD SWAP1 POP PUSH3 0x1BC JUMP JUMPDEST PUSH1 0x0 DUP5 DUP5 ADD MSTORE POP POP POP POP JUMP JUMPDEST PUSH1 0x0 PUSH3 0x1FC PUSH3 0x1F6 DUP5 PUSH3 0x183 JUMP JUMPDEST PUSH3 0x164 JUMP JUMPDEST SWAP1 POP DUP3 DUP2 MSTORE PUSH1 0x20 DUP2 ADD DUP5 DUP5 DUP5 ADD GT ISZERO PUSH3 0x21B JUMPI PUSH3 0x21A PUSH3 0xE9 JUMP JUMPDEST JUMPDEST PUSH3 0x228 DUP5 DUP3 DUP6 PUSH3 0x1B9 JUMP JUMPDEST POP SWAP4 SWAP3 POP POP POP JUMP JUMPDEST PUSH1 0x0 DUP3 PUSH1 0x1F DUP4 ADD SLT PUSH3 0x248 JUMPI PUSH3 0x247 PUSH3 0xE4 JUMP JUMPDEST JUMPDEST DUP2 MLOAD PUSH3 0x25A DUP5 DUP3 PUSH1 0x20 DUP7 ADD PUSH3 0x1E5 JUMP JUMPDEST SWAP2 POP POP SWAP3 SWAP2 POP POP JUMP JUMPDEST PUSH1 0x0 DUP2 SWAP1 POP SWAP2 SWAP1 POP JUMP JUMPDEST PUSH3 0x278 DUP2 PUSH3 0x263 JUMP JUMPDEST DUP2 EQ PUSH3 0x284 JUMPI PUSH1 0x0 DUP1 REVERT JUMPDEST POP JUMP JUMPDEST PUSH1 0x0 DUP2 MLOAD SWAP1 POP PUSH3 0x298 DUP2 PUSH3 0x26D JUMP JUMPDEST SWAP3 SWAP2 POP POP JUMP JUMPDEST PUSH1 0x0 DUP1 PUSH1 0x0 DUP1 PUSH1 0x0 PUSH1 0xA0 DUP7 DUP9 SUB SLT ISZERO PUSH3 0x2BD JUMPI PUSH3 0x2BC PUSH3 0xDA JUMP JUMPDEST JUMPDEST PUSH1 0x0 DUP7 ADD MLOAD PUSH8 0xFFFFFFFFFFFFFFFF DUP2 GT ISZERO PUSH3 0x2DE JUMPI PUSH3 0x2DD PUSH3 0xDF JUMP JUMPDEST JUMPDEST PUSH3 0x2EC DUP9 DUP3 DUP10 ADD PUSH3 0x230 JUMP JUMPDEST SWAP6 POP POP PUSH1 0x20 DUP7 ADD MLOAD PUSH8 0xFFFFFFFFFFFFFFFF DUP2 GT ISZERO PUSH3 0x310 JUMPI PUSH3 0x30F PUSH3 0xDF JUMP JUMPDEST JUMPDEST PUSH3 0x31E DUP9 DUP3 DUP10 ADD PUSH3 0x230 JUMP JUMPDEST SWAP5 POP POP PUSH1 0x40 PUSH3 0x331 DUP9 DUP3 DUP10 ADD PUSH3 0x287 JUMP JUMPDEST SWAP4 POP POP PUSH1 0x60 PUSH3 0x344 DUP9 DUP3 DUP10 ADD PUSH3 0x287 JUMP JUMPDEST SWAP3 POP POP PUSH1 0x80 PUSH3 0x357 DUP9 DUP3 DUP10 ADD PUSH3 0x287 JUMP JUMPDEST SWAP2 POP POP SWAP3 SWAP6 POP SWAP3 SWAP6 SWAP1 SWAP4 POP JUMP JUMPDEST PUSH1 0x0 DUP2 MLOAD SWAP1 POP SWAP2 SWAP1 POP JUMP JUMPDEST PUSH32 0x4E487B7100000000000000000000000000000000000000000000000000000000 PUSH1 0x0 MSTORE PUSH1 0x22 PUSH1 0x4 MSTORE PUSH1 0x24 PUSH1 0x0 REVERT JUMPDEST PUSH1 0x0 PUSH1 0x2 DUP3 DIV SWAP1 POP PUSH1 0x1 DUP3 AND DUP1 PUSH3 0x3B7 JUMPI PUSH1 0x7F DUP3 AND SWAP2 POP JUMPDEST PUSH1 0x20 DUP3 LT DUP2 SUB PUSH3 0x3CD JUMPI PUSH3 0x3CC PUSH3 0x36F JUMP JUMPDEST JUMPDEST POP SWAP2 SWAP1 POP JUMP JUMPDEST PUSH1 0x0 DUP2 SWAP1 POP DUP2 PUSH1 0x0 MSTORE PUSH1 0x20 PUSH1 0x0 KECCAK256 SWAP1 POP SWAP2 SWAP1 POP JUMP JUMPDEST PUSH1 0x0 PUSH1 0x20 PUSH1 0x1F DUP4 ADD DIV SWAP1 POP SWAP2 SWAP1 POP JUMP JUMPDEST PUSH1 0x0 DUP3 DUP3 SHL SWAP1 POP SWAP3 SWAP2 POP POP JUMP JUMPDEST PUSH1 0x0 PUSH1 0x8 DUP4 MUL PUSH3 0x437 PUSH32 0xFFFFFFFFFFFFFFFFFFFFFFFFFFFFFFFFFFFFFFFFFFFFFFFFFFFFFFFFFFFFFFFF DUP3 PUSH3 0x3F8 JUMP JUMPDEST PUSH3 0x443 DUP7 DUP4 PUSH3 0x3F8 JUMP JUMPDEST SWAP6 POP DUP1 NOT DUP5 AND SWAP4 POP DUP1 DUP7 AND DUP5 OR SWAP3 POP POP POP SWAP4 SWAP3 POP POP POP JUMP JUMPDEST PUSH1 0x0 DUP2 SWAP1 POP SWAP2 SWAP1 POP JUMP JUMPDEST PUSH1 0x0 PUSH3 0x486 PUSH3 0x480 PUSH3 0x47A DUP5 PUSH3 0x263 JUMP JUMPDEST PUSH3 0x45B JUMP JUMPDEST PUSH3 0x263 JUMP JUMPDEST SWAP1 POP SWAP2 SWAP1 POP JUMP JUMPDEST PUSH1 0x0 DUP2 SWAP1 POP SWAP2 SWAP1 POP JUMP JUMPDEST PUSH3 0x4A2 DUP4 PUSH3 0x465 JUMP JUMPDEST PUSH3 0x4BA PUSH3 0x4B1 DUP3 PUSH3 0x48D JUMP JUMPDEST DUP5 DUP5 SLOAD PUSH3 0x405 JUMP JUMPDEST DUP3 SSTORE POP POP POP POP JUMP JUMPDEST PUSH1 0x0 SWAP1 JUMP JUMPDEST PUSH3 0x4D1 PUSH3 0x4C2 JUMP JUMPDEST PUSH3 0x4DE DUP2 DUP5 DUP5 PUSH3 0x497 JUMP JUMPDEST POP POP POP JUMP JUMPDEST JUMPDEST DUP2 DUP2 LT ISZERO PUSH3 0x506 JUMPI PUSH3 0x4FA PUSH1 0x0 DUP3 PUSH3 0x4C7 JUMP JUMPDEST PUSH1 0x1 DUP2 ADD SWAP1 POP PUSH3 0x4E4 JUMP JUMPDEST POP POP JUMP JUMPDEST PUSH1 0x1F DUP3 GT ISZERO PUSH3 0x555 JUMPI PUSH3 0x51F DUP2 PUSH3 0x3D3 JUMP JUMPDEST PUSH3 0x52A DUP5 PUSH3 0x3E8 JUMP JUMPDEST DUP2 ADD PUSH1 0x20 DUP6 LT ISZERO PUSH3 0x53A JUMPI DUP2 SWAP1 POP JUMPDEST PUSH3 0x552 PUSH3 0x549 DUP6 PUSH3 0x3E8 JUMP JUMPDEST DUP4 ADD DUP3 PUSH3 0x4E3 JUMP JUMPDEST POP POP JUMPDEST POP POP POP JUMP JUMPDEST PUSH1 0x0 DUP3 DUP3 SHR SWAP1 POP SWAP3 SWAP2 POP POP JUMP JUMPDEST PUSH1 0x0 PUSH3 0x57A PUSH1 0x0 NOT DUP5 PUSH1 0x8 MUL PUSH3 0x55A JUMP JUMPDEST NOT DUP1 DUP4 AND SWAP2 POP POP SWAP3 SWAP2 POP POP JUMP JUMPDEST PUSH1 0x0 PUSH3 0x595 DUP4 DUP4 PUSH3 0x567 JUMP JUMPDEST SWAP2 POP DUP3 PUSH1 0x2 MUL DUP3 OR SWAP1 POP SWAP3 SWAP2 POP POP JUMP JUMPDEST PUSH3 0x5B0 DUP3 PUSH3 0x364 JUMP JUMPDEST PUSH8 0xFFFFFFFFFFFFFFFF DUP2 GT ISZERO PUSH3 0x5CC JUMPI PUSH3 0x5CB PUSH3 0xFF JUMP JUMPDEST JUMPDEST PUSH3 0x5D8 DUP3 SLOAD PUSH3 0x39E JUMP JUMPDEST PUSH3 0x5E5 DUP3 DUP3 DUP6 PUSH3 0x50A JUMP JUMPDEST PUSH1 0x0 PUSH1 0x20 SWAP1 POP PUSH1 0x1F DUP4 GT PUSH1 0x1 DUP2 EQ PUSH3 0x61D JUMPI PUSH1 0x0 DUP5 ISZERO PUSH3 0x608 JUMPI DUP3 DUP8 ADD MLOAD SWAP1 POP JUMPDEST PUSH3 0x614 DUP6 DUP3 PUSH3 0x587 JUMP JUMPDEST DUP7 SSTORE POP PUSH3 0x684 JUMP JUMPDEST PUSH1 0x1F NOT DUP5 AND PUSH3 0x62D DUP7 PUSH3 0x3D3 JUMP JUMPDEST PUSH1 0x0 JUMPDEST DUP3 DUP2 LT ISZERO PUSH3 0x657 JUMPI DUP5 DUP10 ADD MLOAD DUP3 SSTORE PUSH1 0x1 DUP3 ADD SWAP2 POP PUSH1 0x20 DUP6 ADD SWAP5 POP PUSH1 0x20 DUP2 ADD SWAP1 POP PUSH3 0x630 JUMP JUMPDEST DUP7 DUP4 LT ISZERO PUSH3 0x677 JUMPI DUP5 DUP10 ADD MLOAD PUSH3 0x673 PUSH1 0x1F DUP10 AND DUP3 PUSH3 0x567 JUMP JUMPDEST DUP4 SSTORE POP JUMPDEST PUSH1 0x1 PUSH1 0x2 DUP9 MUL ADD DUP9 SSTORE POP POP POP JUMPDEST POP POP POP POP POP POP JUMP JUMPDEST PUSH32 0x4E487B7100000000000000000000000000000000000000000000000000000000 PUSH1 0x0 MSTORE PUSH1 0x11 PUSH1 0x4 MSTORE PUSH1 0x24 PUSH1 0x0 REVERT JUMPDEST PUSH1 0x0 PUSH3 0x6C8 DUP3 PUSH3 0x263 JUMP JUMPDEST SWAP2 POP PUSH3 0x6D5 DUP4 PUSH3 0x263 JUMP JUMPDEST SWAP3 POP DUP3 DUP3 MUL PUSH3 0x6E5 DUP2 PUSH3 0x263 JUMP JUMPDEST SWAP2 POP DUP3 DUP3 DIV DUP5 EQ DUP4 ISZERO OR PUSH3 0x6FF JUMPI PUSH3 0x6FE PUSH3 0x68C JUMP JUMPDEST JUMPDEST POP SWAP3 SWAP2 POP POP JUMP JUMPDEST PUSH2 0x13C9 DUP1 PUSH3 0x716 PUSH1 0x0 CODECOPY PUSH1 0x0 RETURN INVALID PUSH1 0x80 PUSH1 0x40 MSTORE CALLVALUE DUP1 ISZERO PUSH2 0x10 JUMPI PUSH1 0x0 DUP1 REVERT JUMPDEST POP PUSH1 0x4 CALLDATASIZE LT PUSH2 0x57 JUMPI PUSH1 0x0 CALLDATALOAD PUSH1 0xE0 SHR DUP1 PUSH4 0x10DE0744 EQ PUSH2 0x5C JUMPI DUP1 PUSH4 0x43C4A075 EQ PUSH2 0x7A JUMPI DUP1 PUSH4 0x4E99862D EQ PUSH2 0x96 JUMPI DUP1 PUSH4 0x654C6DAF EQ PUSH2 0xB2 JUMPI DUP1 PUSH4 0x6DD7D8EA EQ PUSH2 0xD0 JUMPI JUMPDEST PUSH1 0x0 DUP1 REVERT JUMPDEST PUSH2 0x64 PUSH2 0xEC JUMP JUMPDEST PUSH1 0x40 MLOAD PUSH2 0x71 SWAP2 SWAP1 PUSH2 0x996 JUMP JUMPDEST PUSH1 0x40 MLOAD DUP1 SWAP2 SUB SWAP1 RETURN JUMPDEST PUSH2 0x94 PUSH1 0x4 DUP1 CALLDATASIZE SUB DUP2 ADD SWAP1 PUSH2 0x8F SWAP2 SWAP1 PUSH2 0xD18 JUMP JUMPDEST PUSH2 0x2A0 JUMP JUMPDEST STOP JUMPDEST PUSH2 0xB0 PUSH1 0x4 DUP1 CALLDATASIZE SUB DUP2 ADD SWAP1 PUSH2 0xAB SWAP2 SWAP1 PUSH2 0xDE7 JUMP JUMPDEST PUSH2 0x4AA JUMP JUMPDEST STOP JUMPDEST PUSH2 0xBA PUSH2 0x64C JUMP JUMPDEST PUSH1 0x40 MLOAD PUSH2 0xC7 SWAP2 SWAP1 PUSH2 0xE9F JUMP JUMPDEST PUSH1 0x40 MLOAD DUP1 SWAP2 SUB SWAP1 RETURN JUMPDEST PUSH2 0xEA PUSH1 0x4 DUP1 CALLDATASIZE SUB DUP2 ADD SWAP1 PUSH2 0xE5 SWAP2 SWAP1 PUSH2 0xEBA JUMP JUMPDEST PUSH2 0x656 JUMP JUMPDEST STOP JUMPDEST PUSH1 0x0 DUP1 PUSH1 0x0 SWAP1 SLOAD SWAP1 PUSH2 0x100 EXP SWAP1 DIV PUSH20 0xFFFFFFFFFFFFFFFFFFFFFFFFFFFFFFFFFFFFFFFF AND PUSH20 0xFFFFFFFFFFFFFFFFFFFFFFFFFFFFFFFFFFFFFFFF AND CALLER PUSH20 0xFFFFFFFFFFFFFFFFFFFFFFFFFFFFFFFFFFFFFFFF AND EQ PUSH2 0x17D JUMPI PUSH1 0x40 MLOAD PUSH32 0x8C379A000000000000000000000000000000000000000000000000000000000 DUP2 MSTORE PUSH1 0x4 ADD PUSH2 0x174 SWAP1 PUSH2 0xF44 JUMP JUMPDEST PUSH1 0x40 MLOAD DUP1 SWAP2 SUB SWAP1 REVERT JUMPDEST PUSH1 0x0 PUSH1 0x7 PUSH1 0x0 DUP2 SLOAD DUP2 LT PUSH2 0x194 JUMPI PUSH2 0x193 PUSH2 0xF64 JUMP JUMPDEST JUMPDEST SWAP1 PUSH1 0x0 MSTORE PUSH1 0x20 PUSH1 0x0 KECCAK256 ADD PUSH1 0x0 SWAP1 SLOAD SWAP1 PUSH2 0x100 EXP SWAP1 DIV PUSH20 0xFFFFFFFFFFFFFFFFFFFFFFFFFFFFFFFFFFFFFFFF AND SWAP1 POP PUSH1 0x0 JUMPDEST PUSH1 0x7 DUP1 SLOAD SWAP1 POP DUP2 LT ISZERO PUSH2 0x298 JUMPI DUP2 PUSH20 0xFFFFFFFFFFFFFFFFFFFFFFFFFFFFFFFFFFFFFFFF AND PUSH1 0x7 DUP3 DUP2 SLOAD DUP2 LT PUSH2 0x1FC JUMPI PUSH2 0x1FB PUSH2 0xF64 JUMP JUMPDEST JUMPDEST SWAP1 PUSH1 0x0 MSTORE PUSH1 0x20 PUSH1 0x0 KECCAK256 ADD PUSH1 0x0 SWAP1 SLOAD SWAP1 PUSH2 0x100 EXP SWAP1 DIV PUSH20 0xFFFFFFFFFFFFFFFFFFFFFFFFFFFFFFFFFFFFFFFF AND PUSH20 0xFFFFFFFFFFFFFFFFFFFFFFFFFFFFFFFFFFFFFFFF AND GT ISZERO PUSH2 0x285 JUMPI PUSH1 0x7 DUP2 DUP2 SLOAD DUP2 LT PUSH2 0x257 JUMPI PUSH2 0x256 PUSH2 0xF64 JUMP JUMPDEST JUMPDEST SWAP1 PUSH1 0x0 MSTORE PUSH1 0x20 PUSH1 0x0 KECCAK256 ADD PUSH1 0x0 SWAP1 SLOAD SWAP1 PUSH2 0x100 EXP SWAP1 DIV PUSH20 0xFFFFFFFFFFFFFFFFFFFFFFFFFFFFFFFFFFFFFFFF AND SWAP2 POP JUMPDEST DUP1 DUP1 PUSH2 0x290 SWAP1 PUSH2 0xFC2 JUMP JUMPDEST SWAP2 POP POP PUSH2 0x1C4 JUMP JUMPDEST POP DUP1 SWAP2 POP POP SWAP1 JUMP JUMPDEST PUSH1 0x0 DUP1 SLOAD SWAP1 PUSH2 0x100 EXP SWAP1 DIV PUSH20 0xFFFFFFFFFFFFFFFFFFFFFFFFFFFFFFFFFFFFFFFF AND PUSH20 0xFFFFFFFFFFFFFFFFFFFFFFFFFFFFFFFFFFFFFFFF AND CALLER PUSH20 0xFFFFFFFFFFFFFFFFFFFFFFFFFFFFFFFFFFFFFFFF AND EQ PUSH2 0x32E JUMPI PUSH1 0x40 MLOAD PUSH32 0x8C379A000000000000000000000000000000000000000000000000000000000 DUP2 MSTORE PUSH1 0x4 ADD PUSH2 0x325 SWAP1 PUSH2 0xF44 JUMP JUMPDEST PUSH1 0x40 MLOAD DUP1 SWAP2 SUB SWAP1 REVERT JUMPDEST PUSH1 0x1 PUSH1 0x6 PUSH1 0x0 DUP3 DUP3 SLOAD PUSH2 0x341 SWAP2 SWAP1 PUSH2 0x100A JUMP JUMPDEST SWAP3 POP POP DUP2 SWAP1 SSTORE POP PUSH1 0x40 MLOAD DUP1 PUSH1 0xC0 ADD PUSH1 0x40 MSTORE DUP1 PUSH1 0x6 SLOAD DUP2 MSTORE PUSH1 0x20 ADD DUP6 DUP2 MSTORE PUSH1 0x20 ADD DUP5 DUP2 MSTORE PUSH1 0x20 ADD DUP4 DUP2 MSTORE PUSH1 0x20 ADD DUP3 ISZERO ISZERO DUP2 MSTORE PUSH1 0x20 ADD PUSH1 0x0 DUP2 MSTORE POP PUSH1 0x9 PUSH1 0x0 DUP8 PUSH20 0xFFFFFFFFFFFFFFFFFFFFFFFFFFFFFFFFFFFFFFFF AND PUSH20 0xFFFFFFFFFFFFFFFFFFFFFFFFFFFFFFFFFFFFFFFF AND DUP2 MSTORE PUSH1 0x20 ADD SWAP1 DUP2 MSTORE PUSH1 0x20 ADD PUSH1 0x0 KECCAK256 PUSH1 0x0 DUP3 ADD MLOAD DUP2 PUSH1 0x0 ADD SSTORE PUSH1 0x20 DUP3 ADD MLOAD DUP2 PUSH1 0x1 ADD SWAP1 DUP1 MLOAD SWAP1 PUSH1 0x20 ADD SWAP1 PUSH2 0x3DF SWAP3 SWAP2 SWAP1 PUSH2 0x7F1 JUMP JUMPDEST POP PUSH1 0x40 DUP3 ADD MLOAD DUP2 PUSH1 0x2 ADD SWAP1 DUP1 MLOAD SWAP1 PUSH1 0x20 ADD SWAP1 PUSH2 0x3FC SWAP3 SWAP2 SWAP1 PUSH2 0x87B JUMP JUMPDEST POP PUSH1 0x60 DUP3 ADD MLOAD DUP2 PUSH1 0x3 ADD SWAP1 DUP2 PUSH2 0x412 SWAP2 SWAP1 PUSH2 0x1255 JUMP JUMPDEST POP PUSH1 0x80 DUP3 ADD MLOAD DUP2 PUSH1 0x4 ADD PUSH1 0x0 PUSH2 0x100 EXP DUP2 SLOAD DUP2 PUSH1 0xFF MUL NOT AND SWAP1 DUP4 ISZERO ISZERO MUL OR SWAP1 SSTORE POP PUSH1 0xA0 DUP3 ADD MLOAD DUP2 PUSH1 0x5 ADD SSTORE SWAP1 POP POP PUSH1 0x7 DUP6 SWAP1 DUP1 PUSH1 0x1 DUP2 SLOAD ADD DUP1 DUP3 SSTORE DUP1 SWAP2 POP POP PUSH1 0x1 SWAP1 SUB SWAP1 PUSH1 0x0 MSTORE PUSH1 0x20 PUSH1 0x0 KECCAK256 ADD PUSH1 0x0 SWAP1 SWAP2 SWAP1 SWAP2 SWAP1 SWAP2 PUSH2 0x100 EXP DUP2 SLOAD DUP2 PUSH20 0xFFFFFFFFFFFFFFFFFFFFFFFFFFFFFFFFFFFFFFFF MUL NOT AND SWAP1 DUP4 PUSH20 0xFFFFFFFFFFFFFFFFFFFFFFFFFFFFFFFFFFFFFFFF AND MUL OR SWAP1 SSTORE POP POP POP POP POP POP JUMP JUMPDEST PUSH1 0x0 DUP1 SLOAD SWAP1 PUSH2 0x100 EXP SWAP1 DIV PUSH20 0xFFFFFFFFFFFFFFFFFFFFFFFFFFFFFFFFFFFFFFFF AND PUSH20 0xFFFFFFFFFFFFFFFFFFFFFFFFFFFFFFFFFFFFFFFF AND CALLER PUSH20 0xFFFFFFFFFFFFFFFFFFFFFFFFFFFFFFFFFFFFFFFF AND EQ PUSH2 0x538 JUMPI PUSH1 0x40 MLOAD PUSH32 0x8C379A000000000000000000000000000000000000000000000000000000000 DUP2 MSTORE PUSH1 0x4 ADD PUSH2 0x52F SWAP1 PUSH2 0xF44 JUMP JUMPDEST PUSH1 0x40 MLOAD DUP1 SWAP2 SUB SWAP1 REVERT JUMPDEST PUSH1 0x40 MLOAD DUP1 PUSH1 0x80 ADD PUSH1 0x40 MSTORE DUP1 DUP6 PUSH20 0xFFFFFFFFFFFFFFFFFFFFFFFFFFFFFFFFFFFFFFFF AND DUP2 MSTORE PUSH1 0x20 ADD DUP5 DUP2 MSTORE PUSH1 0x20 ADD DUP4 DUP2 MSTORE PUSH1 0x20 ADD DUP3 ISZERO ISZERO DUP2 MSTORE POP PUSH1 0x8 PUSH1 0x0 DUP7 PUSH20 0xFFFFFFFFFFFFFFFFFFFFFFFFFFFFFFFFFFFFFFFF AND PUSH20 0xFFFFFFFFFFFFFFFFFFFFFFFFFFFFFFFFFFFFFFFF AND DUP2 MSTORE PUSH1 0x20 ADD SWAP1 DUP2 MSTORE PUSH1 0x20 ADD PUSH1 0x0 KECCAK256 PUSH1 0x0 DUP3 ADD MLOAD DUP2 PUSH1 0x0 ADD PUSH1 0x0 PUSH2 0x100 EXP DUP2 SLOAD DUP2 PUSH20 0xFFFFFFFFFFFFFFFFFFFFFFFFFFFFFFFFFFFFFFFF MUL NOT AND SWAP1 DUP4 PUSH20 0xFFFFFFFFFFFFFFFFFFFFFFFFFFFFFFFFFFFFFFFF AND MUL OR SWAP1 SSTORE POP PUSH1 0x20 DUP3 ADD MLOAD DUP2 PUSH1 0x1 ADD SWAP1 DUP2 PUSH2 0x60C SWAP2 SWAP1 PUSH2 0x1255 JUMP JUMPDEST POP PUSH1 0x40 DUP3 ADD MLOAD DUP2 PUSH1 0x2 ADD SWAP1 DUP2 PUSH2 0x622 SWAP2 SWAP1 PUSH2 0x1255 JUMP JUMPDEST POP PUSH1 0x60 DUP3 ADD MLOAD DUP2 PUSH1 0x3 ADD PUSH1 0x0 PUSH2 0x100 EXP DUP2 SLOAD DUP2 PUSH1 0xFF MUL NOT AND SWAP1 DUP4 ISZERO ISZERO MUL OR SWAP1 SSTORE POP SWAP1 POP POP POP POP POP POP JUMP JUMPDEST PUSH1 0x0 PUSH1 0x6 SLOAD SWAP1 POP SWAP1 JUMP JUMPDEST PUSH1 0x8 PUSH1 0x0 CALLER PUSH20 0xFFFFFFFFFFFFFFFFFFFFFFFFFFFFFFFFFFFFFFFF AND PUSH20 0xFFFFFFFFFFFFFFFFFFFFFFFFFFFFFFFFFFFFFFFF AND DUP2 MSTORE PUSH1 0x20 ADD SWAP1 DUP2 MSTORE PUSH1 0x20 ADD PUSH1 0x0 KECCAK256 PUSH1 0x3 ADD PUSH1 0x0 SWAP1 SLOAD SWAP1 PUSH2 0x100 EXP SWAP1 DIV PUSH1 0xFF AND PUSH2 0x6E5 JUMPI PUSH1 0x40 MLOAD PUSH32 0x8C379A000000000000000000000000000000000000000000000000000000000 DUP2 MSTORE PUSH1 0x4 ADD PUSH2 0x6DC SWAP1 PUSH2 0x1373 JUMP JUMPDEST PUSH1 0x40 MLOAD DUP1 SWAP2 SUB SWAP1 REVERT JUMPDEST PUSH1 0xA PUSH1 0x0 CALLER PUSH20 0xFFFFFFFFFFFFFFFFFFFFFFFFFFFFFFFFFFFFFFFF AND PUSH20 0xFFFFFFFFFFFFFFFFFFFFFFFFFFFFFFFFFFFFFFFF AND DUP2 MSTORE PUSH1 0x20 ADD SWAP1 DUP2 MSTORE PUSH1 0x20 ADD PUSH1 0x0 KECCAK256 PUSH1 0x0 SWAP1 SLOAD SWAP1 PUSH2 0x100 EXP SWAP1 DIV PUSH1 0xFF AND ISZERO PUSH2 0x73C JUMPI PUSH1 0x0 DUP1 REVERT JUMPDEST PUSH1 0x1 PUSH1 0xA PUSH1 0x0 CALLER PUSH20 0xFFFFFFFFFFFFFFFFFFFFFFFFFFFFFFFFFFFFFFFF AND PUSH20 0xFFFFFFFFFFFFFFFFFFFFFFFFFFFFFFFFFFFFFFFF AND DUP2 MSTORE PUSH1 0x20 ADD SWAP1 DUP2 MSTORE PUSH1 0x20 ADD PUSH1 0x0 KECCAK256 PUSH1 0x0 PUSH2 0x100 EXP DUP2 SLOAD DUP2 PUSH1 0xFF MUL NOT AND SWAP1 DUP4 ISZERO ISZERO MUL OR SWAP1 SSTORE POP PUSH1 0x1 PUSH1 0x9 PUSH1 0x0 DUP4 PUSH20 0xFFFFFFFFFFFFFFFFFFFFFFFFFFFFFFFFFFFFFFFF AND PUSH20 0xFFFFFFFFFFFFFFFFFFFFFFFFFFFFFFFFFFFFFFFF AND DUP2 MSTORE PUSH1 0x20 ADD SWAP1 DUP2 MSTORE PUSH1 0x20 ADD PUSH1 0x0 KECCAK256 PUSH1 0x5 ADD PUSH1 0x0 DUP3 DUP3 SLOAD PUSH2 0x7E7 SWAP2 SWAP1 PUSH2 0x100A JUMP JUMPDEST SWAP3 POP POP DUP2 SWAP1 SSTORE POP POP JUMP JUMPDEST DUP3 DUP1 SLOAD DUP3 DUP3 SSTORE SWAP1 PUSH1 0x0 MSTORE PUSH1 0x20 PUSH1 0x0 KECCAK256 SWAP1 DUP2 ADD SWAP3 DUP3 ISZERO PUSH2 0x86A JUMPI SWAP2 PUSH1 0x20 MUL DUP3 ADD JUMPDEST DUP3 DUP2 GT ISZERO PUSH2 0x869 JUMPI DUP3 MLOAD DUP3 PUSH1 0x0 PUSH2 0x100 EXP DUP2 SLOAD DUP2 PUSH20 0xFFFFFFFFFFFFFFFFFFFFFFFFFFFFFFFFFFFFFFFF MUL NOT AND SWAP1 DUP4 PUSH20 0xFFFFFFFFFFFFFFFFFFFFFFFFFFFFFFFFFFFFFFFF AND MUL OR SWAP1 SSTORE POP SWAP2 PUSH1 0x20 ADD SWAP2 SWAP1 PUSH1 0x1 ADD SWAP1 PUSH2 0x811 JUMP JUMPDEST JUMPDEST POP SWAP1 POP PUSH2 0x877 SWAP2 SWAP1 PUSH2 0x8D4 JUMP JUMPDEST POP SWAP1 JUMP JUMPDEST DUP3 DUP1 SLOAD DUP3 DUP3 SSTORE SWAP1 PUSH1 0x0 MSTORE PUSH1 0x20 PUSH1 0x0 KECCAK256 SWAP1 DUP2 ADD SWAP3 DUP3 ISZERO PUSH2 0x8C3 JUMPI SWAP2 PUSH1 0x20 MUL DUP3 ADD JUMPDEST DUP3 DUP2 GT ISZERO PUSH2 0x8C2 JUMPI DUP3 MLOAD DUP3 SWAP1 DUP2 PUSH2 0x8B2 SWAP2 SWAP1 PUSH2 0x1255 JUMP JUMPDEST POP SWAP2 PUSH1 0x20 ADD SWAP2 SWAP1 PUSH1 0x1 ADD SWAP1 PUSH2 0x89B JUMP JUMPDEST JUMPDEST POP SWAP1 POP PUSH2 0x8D0 SWAP2 SWAP1 PUSH2 0x8F1 JUMP JUMPDEST POP SWAP1 JUMP JUMPDEST JUMPDEST DUP1 DUP3 GT ISZERO PUSH2 0x8ED JUMPI PUSH1 0x0 DUP2 PUSH1 0x0 SWAP1 SSTORE POP PUSH1 0x1 ADD PUSH2 0x8D5 JUMP JUMPDEST POP SWAP1 JUMP JUMPDEST JUMPDEST DUP1 DUP3 GT ISZERO PUSH2 0x911 JUMPI PUSH1 0x0 DUP2 DUP2 PUSH2 0x908 SWAP2 SWAP1 PUSH2 0x915 JUMP JUMPDEST POP PUSH1 0x1 ADD PUSH2 0x8F2 JUMP JUMPDEST POP SWAP1 JUMP JUMPDEST POP DUP1 SLOAD PUSH2 0x921 SWAP1 PUSH2 0x1078 JUMP JUMPDEST PUSH1 0x0 DUP3 SSTORE DUP1 PUSH1 0x1F LT PUSH2 0x933 JUMPI POP PUSH2 0x952 JUMP JUMPDEST PUSH1 0x1F ADD PUSH1 0x20 SWAP1 DIV SWAP1 PUSH1 0x0 MSTORE PUSH1 0x20 PUSH1 0x0 KECCAK256 SWAP1 DUP2 ADD SWAP1 PUSH2 0x951 SWAP2 SWAP1 PUSH2 0x8D4 JUMP JUMPDEST JUMPDEST POP JUMP JUMPDEST PUSH1 0x0 PUSH20 0xFFFFFFFFFFFFFFFFFFFFFFFFFFFFFFFFFFFFFFFF DUP3 AND SWAP1 POP SWAP2 SWAP1 POP JUMP JUMPDEST PUSH1 0x0 PUSH2 0x980 DUP3 PUSH2 0x955 JUMP JUMPDEST SWAP1 POP SWAP2 SWAP1 POP JUMP JUMPDEST PUSH2 0x990 DUP2 PUSH2 0x975 JUMP JUMPDEST DUP3 MSTORE POP POP JUMP JUMPDEST PUSH1 0x0 PUSH1 0x20 DUP3 ADD SWAP1 POP PUSH2 0x9AB PUSH1 0x0 DUP4 ADD DUP5 PUSH2 0x987 JUMP JUMPDEST SWAP3 SWAP2 POP POP JUMP JUMPDEST PUSH1 0x0 PUSH1 0x40 MLOAD SWAP1 POP SWAP1 JUMP JUMPDEST PUSH1 0x0 DUP1 REVERT JUMPDEST PUSH1 0x0 DUP1 REVERT JUMPDEST PUSH2 0x9CE DUP2 PUSH2 0x975 JUMP JUMPDEST DUP2 EQ PUSH2 0x9D9 JUMPI PUSH1 0x0 DUP1 REVERT JUMPDEST POP JUMP JUMPDEST PUSH1 0x0 DUP2 CALLDATALOAD SWAP1 POP PUSH2 0x9EB DUP2 PUSH2 0x9C5 JUMP JUMPDEST SWAP3 SWAP2 POP POP JUMP JUMPDEST PUSH1 0x0 DUP1 REVERT JUMPDEST PUSH1 0x0 PUSH1 0x1F NOT PUSH1 0x1F DUP4 ADD AND SWAP1 POP SWAP2 SWAP1 POP JUMP JUMPDEST PUSH32 0x4E487B7100000000000000000000000000000000000000000000000000000000 PUSH1 0x0 MSTORE PUSH1 0x41 PUSH1 0x4 MSTORE PUSH1 0x24 PUSH1 0x0 REVERT JUMPDEST PUSH2 0xA3F DUP3 PUSH2 0x9F6 JUMP JUMPDEST DUP2 ADD DUP2 DUP2 LT PUSH8 0xFFFFFFFFFFFFFFFF DUP3 GT OR ISZERO PUSH2 0xA5E JUMPI PUSH2 0xA5D PUSH2 0xA07 JUMP JUMPDEST JUMPDEST DUP1 PUSH1 0x40 MSTORE POP POP POP JUMP JUMPDEST PUSH1 0x0 PUSH2 0xA71 PUSH2 0x9B1 JUMP JUMPDEST SWAP1 POP PUSH2 0xA7D DUP3 DUP3 PUSH2 0xA36 JUMP JUMPDEST SWAP2 SWAP1 POP JUMP JUMPDEST PUSH1 0x0 PUSH8 0xFFFFFFFFFFFFFFFF DUP3 GT ISZERO PUSH2 0xA9D JUMPI PUSH2 0xA9C PUSH2 0xA07 JUMP JUMPDEST JUMPDEST PUSH1 0x20 DUP3 MUL SWAP1 POP PUSH1 0x20 DUP2 ADD SWAP1 POP SWAP2 SWAP1 POP JUMP JUMPDEST PUSH1 0x0 DUP1 REVERT JUMPDEST PUSH1 0x0 PUSH2 0xAC6 PUSH2 0xAC1 DUP5 PUSH2 0xA82 JUMP JUMPDEST PUSH2 0xA67 JUMP JUMPDEST SWAP1 POP DUP1 DUP4 DUP3 MSTORE PUSH1 0x20 DUP3 ADD SWAP1 POP PUSH1 0x20 DUP5 MUL DUP4 ADD DUP6 DUP2 GT ISZERO PUSH2 0xAE9 JUMPI PUSH2 0xAE8 PUSH2 0xAAE JUMP JUMPDEST JUMPDEST DUP4 JUMPDEST DUP2 DUP2 LT ISZERO PUSH2 0xB12 JUMPI DUP1 PUSH2 0xAFE DUP9 DUP3 PUSH2 0x9DC JUMP JUMPDEST DUP5 MSTORE PUSH1 0x20 DUP5 ADD SWAP4 POP POP PUSH1 0x20 DUP2 ADD SWAP1 POP PUSH2 0xAEB JUMP JUMPDEST POP POP POP SWAP4 SWAP3 POP POP POP JUMP JUMPDEST PUSH1 0x0 DUP3 PUSH1 0x1F DUP4 ADD SLT PUSH2 0xB31 JUMPI PUSH2 0xB30 PUSH2 0x9F1 JUMP JUMPDEST JUMPDEST DUP2 CALLDATALOAD PUSH2 0xB41 DUP5 DUP3 PUSH1 0x20 DUP7 ADD PUSH2 0xAB3 JUMP JUMPDEST SWAP2 POP POP SWAP3 SWAP2 POP POP JUMP JUMPDEST PUSH1 0x0 PUSH8 0xFFFFFFFFFFFFFFFF DUP3 GT ISZERO PUSH2 0xB65 JUMPI PUSH2 0xB64 PUSH2 0xA07 JUMP JUMPDEST JUMPDEST PUSH1 0x20 DUP3 MUL SWAP1 POP PUSH1 0x20 DUP2 ADD SWAP1 POP SWAP2 SWAP1 POP JUMP JUMPDEST PUSH1 0x0 DUP1 REVERT JUMPDEST PUSH1 0x0 PUSH8 0xFFFFFFFFFFFFFFFF DUP3 GT ISZERO PUSH2 0xB96 JUMPI PUSH2 0xB95 PUSH2 0xA07 JUMP JUMPDEST JUMPDEST PUSH2 0xB9F DUP3 PUSH2 0x9F6 JUMP JUMPDEST SWAP1 POP PUSH1 0x20 DUP2 ADD SWAP1 POP SWAP2 SWAP1 POP JUMP JUMPDEST DUP3 DUP2 DUP4 CALLDATACOPY PUSH1 0x0 DUP4 DUP4 ADD MSTORE POP POP POP JUMP JUMPDEST PUSH1 0x0 PUSH2 0xBCE PUSH2 0xBC9 DUP5 PUSH2 0xB7B JUMP JUMPDEST PUSH2 0xA67 JUMP JUMPDEST SWAP1 POP DUP3 DUP2 MSTORE PUSH1 0x20 DUP2 ADD DUP5 DUP5 DUP5 ADD GT ISZERO PUSH2 0xBEA JUMPI PUSH2 0xBE9 PUSH2 0xB76 JUMP JUMPDEST JUMPDEST PUSH2 0xBF5 DUP5 DUP3 DUP6 PUSH2 0xBAC JUMP JUMPDEST POP SWAP4 SWAP3 POP POP POP JUMP JUMPDEST PUSH1 0x0 DUP3 PUSH1 0x1F DUP4 ADD SLT PUSH2 0xC12 JUMPI PUSH2 0xC11 PUSH2 0x9F1 JUMP JUMPDEST JUMPDEST DUP2 CALLDATALOAD PUSH2 0xC22 DUP5 DUP3 PUSH1 0x20 DUP7 ADD PUSH2 0xBBB JUMP JUMPDEST SWAP2 POP POP SWAP3 SWAP2 POP POP JUMP JUMPDEST PUSH1 0x0 PUSH2 0xC3E PUSH2 0xC39 DUP5 PUSH2 0xB4A JUMP JUMPDEST PUSH2 0xA67 JUMP JUMPDEST SWAP1 POP DUP1 DUP4 DUP3 MSTORE PUSH1 0x20 DUP3 ADD SWAP1 POP PUSH1 0x20 DUP5 MUL DUP4 ADD DUP6 DUP2 GT ISZERO PUSH2 0xC61 JUMPI PUSH2 0xC60 PUSH2 0xAAE JUMP JUMPDEST JUMPDEST DUP4 JUMPDEST DUP2 DUP2 LT ISZERO PUSH2 0xCA8 JUMPI DUP1 CALLDATALOAD PUSH8 0xFFFFFFFFFFFFFFFF DUP2 GT ISZERO PUSH2 0xC86 JUMPI PUSH2 0xC85 PUSH2 0x9F1 JUMP JUMPDEST JUMPDEST DUP1 DUP7 ADD PUSH2 0xC93 DUP10 DUP3 PUSH2 0xBFD JUMP JUMPDEST DUP6 MSTORE PUSH1 0x20 DUP6 ADD SWAP5 POP POP POP PUSH1 0x20 DUP2 ADD SWAP1 POP PUSH2 0xC63 JUMP JUMPDEST POP POP POP SWAP4 SWAP3 POP POP POP JUMP JUMPDEST PUSH1 0x0 DUP3 PUSH1 0x1F DUP4 ADD SLT PUSH2 0xCC7 JUMPI PUSH2 0xCC6 PUSH2 0x9F1 JUMP JUMPDEST JUMPDEST DUP2 CALLDATALOAD PUSH2 0xCD7 DUP5 DUP3 PUSH1 0x20 DUP7 ADD PUSH2 0xC2B JUMP JUMPDEST SWAP2 POP POP SWAP3 SWAP2 POP POP JUMP JUMPDEST PUSH1 0x0 DUP2 ISZERO ISZERO SWAP1 POP SWAP2 SWAP1 POP JUMP JUMPDEST PUSH2 0xCF5 DUP2 PUSH2 0xCE0 JUMP JUMPDEST DUP2 EQ PUSH2 0xD00 JUMPI PUSH1 0x0 DUP1 REVERT JUMPDEST POP JUMP JUMPDEST PUSH1 0x0 DUP2 CALLDATALOAD SWAP1 POP PUSH2 0xD12 DUP2 PUSH2 0xCEC JUMP JUMPDEST SWAP3 SWAP2 POP POP JUMP JUMPDEST PUSH1 0x0 DUP1 PUSH1 0x0 DUP1 PUSH1 0x0 PUSH1 0xA0 DUP7 DUP9 SUB SLT ISZERO PUSH2 0xD34 JUMPI PUSH2 0xD33 PUSH2 0x9BB JUMP JUMPDEST JUMPDEST PUSH1 0x0 PUSH2 0xD42 DUP9 DUP3 DUP10 ADD PUSH2 0x9DC JUMP JUMPDEST SWAP6 POP POP PUSH1 0x20 DUP7 ADD CALLDATALOAD PUSH8 0xFFFFFFFFFFFFFFFF DUP2 GT ISZERO PUSH2 0xD63 JUMPI PUSH2 0xD62 PUSH2 0x9C0 JUMP JUMPDEST JUMPDEST PUSH2 0xD6F DUP9 DUP3 DUP10 ADD PUSH2 0xB1C JUMP JUMPDEST SWAP5 POP POP PUSH1 0x40 DUP7 ADD CALLDATALOAD PUSH8 0xFFFFFFFFFFFFFFFF DUP2 GT ISZERO PUSH2 0xD90 JUMPI PUSH2 0xD8F PUSH2 0x9C0 JUMP JUMPDEST JUMPDEST PUSH2 0xD9C DUP9 DUP3 DUP10 ADD PUSH2 0xCB2 JUMP JUMPDEST SWAP4 POP POP PUSH1 0x60 DUP7 ADD CALLDATALOAD PUSH8 0xFFFFFFFFFFFFFFFF DUP2 GT ISZERO PUSH2 0xDBD JUMPI PUSH2 0xDBC PUSH2 0x9C0 JUMP JUMPDEST JUMPDEST PUSH2 0xDC9 DUP9 DUP3 DUP10 ADD PUSH2 0xBFD JUMP JUMPDEST SWAP3 POP POP PUSH1 0x80 PUSH2 0xDDA DUP9 DUP3 DUP10 ADD PUSH2 0xD03 JUMP JUMPDEST SWAP2 POP POP SWAP3 SWAP6 POP SWAP3 SWAP6 SWAP1 SWAP4 POP JUMP JUMPDEST PUSH1 0x0 DUP1 PUSH1 0x0 DUP1 PUSH1 0x80 DUP6 DUP8 SUB SLT ISZERO PUSH2 0xE01 JUMPI PUSH2 0xE00 PUSH2 0x9BB JUMP JUMPDEST JUMPDEST PUSH1 0x0 PUSH2 0xE0F DUP8 DUP3 DUP9 ADD PUSH2 0x9DC JUMP JUMPDEST SWAP5 POP POP PUSH1 0x20 DUP6 ADD CALLDATALOAD PUSH8 0xFFFFFFFFFFFFFFFF DUP2 GT ISZERO PUSH2 0xE30 JUMPI PUSH2 0xE2F PUSH2 0x9C0 JUMP JUMPDEST JUMPDEST PUSH2 0xE3C DUP8 DUP3 DUP9 ADD PUSH2 0xBFD JUMP JUMPDEST SWAP4 POP POP PUSH1 0x40 DUP6 ADD CALLDATALOAD PUSH8 0xFFFFFFFFFFFFFFFF DUP2 GT ISZERO PUSH2 0xE5D JUMPI PUSH2 0xE5C PUSH2 0x9C0 JUMP JUMPDEST JUMPDEST PUSH2 0xE69 DUP8 DUP3 DUP9 ADD PUSH2 0xBFD JUMP JUMPDEST SWAP3 POP POP PUSH1 0x60 PUSH2 0xE7A DUP8 DUP3 DUP9 ADD PUSH2 0xD03 JUMP JUMPDEST SWAP2 POP POP SWAP3 SWAP6 SWAP2 SWAP5 POP SWAP3 POP JUMP JUMPDEST PUSH1 0x0 DUP2 SWAP1 POP SWAP2 SWAP1 POP JUMP JUMPDEST PUSH2 0xE99 DUP2 PUSH2 0xE86 JUMP JUMPDEST DUP3 MSTORE POP POP JUMP JUMPDEST PUSH1 0x0 PUSH1 0x20 DUP3 ADD SWAP1 POP PUSH2 0xEB4 PUSH1 0x0 DUP4 ADD DUP5 PUSH2 0xE90 JUMP JUMPDEST SWAP3 SWAP2 POP POP JUMP JUMPDEST PUSH1 0x0 PUSH1 0x20 DUP3 DUP5 SUB SLT ISZERO PUSH2 0xED0 JUMPI PUSH2 0xECF PUSH2 0x9BB JUMP JUMPDEST JUMPDEST PUSH1 0x0 PUSH2 0xEDE DUP5 DUP3 DUP6 ADD PUSH2 0x9DC JUMP JUMPDEST SWAP2 POP POP SWAP3 SWAP2 POP POP JUMP JUMPDEST PUSH1 0x0 DUP3 DUP3 MSTORE PUSH1 0x20 DUP3 ADD SWAP1 POP SWAP3 SWAP2 POP POP JUMP JUMPDEST PUSH32 0x596F757265206E6F74206F776E65720000000000000000000000000000000000 PUSH1 0x0 DUP3 ADD MSTORE POP JUMP JUMPDEST PUSH1 0x0 PUSH2 0xF2E PUSH1 0xF DUP4 PUSH2 0xEE7 JUMP JUMPDEST SWAP2 POP PUSH2 0xF39 DUP3 PUSH2 0xEF8 JUMP JUMPDEST PUSH1 0x20 DUP3 ADD SWAP1 POP SWAP2 SWAP1 POP JUMP JUMPDEST PUSH1 0x0 PUSH1 0x20 DUP3 ADD SWAP1 POP DUP2 DUP2 SUB PUSH1 0x0 DUP4 ADD MSTORE PUSH2 0xF5D DUP2 PUSH2 0xF21 JUMP JUMPDEST SWAP1 POP SWAP2 SWAP1 POP JUMP JUMPDEST PUSH32 0x4E487B7100000000000000000000000000000000000000000000000000000000 PUSH1 0x0 MSTORE PUSH1 0x32 PUSH1 0x4 MSTORE PUSH1 0x24 PUSH1 0x0 REVERT JUMPDEST PUSH32 0x4E487B7100000000000000000000000000000000000000000000000000000000 PUSH1 0x0 MSTORE PUSH1 0x11 PUSH1 0x4 MSTORE PUSH1 0x24 PUSH1 0x0 REVERT JUMPDEST PUSH1 0x0 PUSH2 0xFCD DUP3 PUSH2 0xE86 JUMP JUMPDEST SWAP2 POP PUSH32 0xFFFFFFFFFFFFFFFFFFFFFFFFFFFFFFFFFFFFFFFFFFFFFFFFFFFFFFFFFFFFFFFF DUP3 SUB PUSH2 0xFFF JUMPI PUSH2 0xFFE PUSH2 0xF93 JUMP JUMPDEST JUMPDEST PUSH1 0x1 DUP3 ADD SWAP1 POP SWAP2 SWAP1 POP JUMP JUMPDEST PUSH1 0x0 PUSH2 0x1015 DUP3 PUSH2 0xE86 JUMP JUMPDEST SWAP2 POP PUSH2 0x1020 DUP4 PUSH2 0xE86 JUMP JUMPDEST SWAP3 POP DUP3 DUP3 ADD SWAP1 POP DUP1 DUP3 GT ISZERO PUSH2 0x1038 JUMPI PUSH2 0x1037 PUSH2 0xF93 JUMP JUMPDEST JUMPDEST SWAP3 SWAP2 POP POP JUMP JUMPDEST PUSH1 0x0 DUP2 MLOAD SWAP1 POP SWAP2 SWAP1 POP JUMP JUMPDEST PUSH32 0x4E487B7100000000000000000000000000000000000000000000000000000000 PUSH1 0x0 MSTORE PUSH1 0x22 PUSH1 0x4 MSTORE PUSH1 0x24 PUSH1 0x0 REVERT JUMPDEST PUSH1 0x0 PUSH1 0x2 DUP3 DIV SWAP1 POP PUSH1 0x1 DUP3 AND DUP1 PUSH2 0x1090 JUMPI PUSH1 0x7F DUP3 AND SWAP2 POP JUMPDEST PUSH1 0x20 DUP3 LT DUP2 SUB PUSH2 0x10A3 JUMPI PUSH2 0x10A2 PUSH2 0x1049 JUMP JUMPDEST JUMPDEST POP SWAP2 SWAP1 POP JUMP JUMPDEST PUSH1 0x0 DUP2 SWAP1 POP DUP2 PUSH1 0x0 MSTORE PUSH1 0x20 PUSH1 0x0 KECCAK256 SWAP1 POP SWAP2 SWAP1 POP JUMP JUMPDEST PUSH1 0x0 PUSH1 0x20 PUSH1 0x1F DUP4 ADD DIV SWAP1 POP SWAP2 SWAP1 POP JUMP JUMPDEST PUSH1 0x0 DUP3 DUP3 SHL SWAP1 POP SWAP3 SWAP2 POP POP JUMP JUMPDEST PUSH1 0x0 PUSH1 0x8 DUP4 MUL PUSH2 0x110B PUSH32 0xFFFFFFFFFFFFFFFFFFFFFFFFFFFFFFFFFFFFFFFFFFFFFFFFFFFFFFFFFFFFFFFF DUP3 PUSH2 0x10CE JUMP JUMPDEST PUSH2 0x1115 DUP7 DUP4 PUSH2 0x10CE JUMP JUMPDEST SWAP6 POP DUP1 NOT DUP5 AND SWAP4 POP DUP1 DUP7 AND DUP5 OR SWAP3 POP POP POP SWAP4 SWAP3 POP POP POP JUMP JUMPDEST PUSH1 0x0 DUP2 SWAP1 POP SWAP2 SWAP1 POP JUMP JUMPDEST PUSH1 0x0 PUSH2 0x1152 PUSH2 0x114D PUSH2 0x1148 DUP5 PUSH2 0xE86 JUMP JUMPDEST PUSH2 0x112D JUMP JUMPDEST PUSH2 0xE86 JUMP JUMPDEST SWAP1 POP SWAP2 SWAP1 POP JUMP JUMPDEST PUSH1 0x0 DUP2 SWAP1 POP SWAP2 SWAP1 POP JUMP JUMPDEST PUSH2 0x116C DUP4 PUSH2 0x1137 JUMP JUMPDEST PUSH2 0x1180 PUSH2 0x1178 DUP3 PUSH2 0x1159 JUMP JUMPDEST DUP5 DUP5 SLOAD PUSH2 0x10DB JUMP JUMPDEST DUP3 SSTORE POP POP POP POP JUMP JUMPDEST PUSH1 0x0 SWAP1 JUMP JUMPDEST PUSH2 0x1195 PUSH2 0x1188 JUMP JUMPDEST PUSH2 0x11A0 DUP2 DUP5 DUP5 PUSH2 0x1163 JUMP JUMPDEST POP POP POP JUMP JUMPDEST JUMPDEST DUP2 DUP2 LT ISZERO PUSH2 0x11C4 JUMPI PUSH2 0x11B9 PUSH1 0x0 DUP3 PUSH2 0x118D JUMP JUMPDEST PUSH1 0x1 DUP2 ADD SWAP1 POP PUSH2 0x11A6 JUMP JUMPDEST POP POP JUMP JUMPDEST PUSH1 0x1F DUP3 GT ISZERO PUSH2 0x1209 JUMPI PUSH2 0x11DA DUP2 PUSH2 0x10A9 JUMP JUMPDEST PUSH2 0x11E3 DUP5 PUSH2 0x10BE JUMP JUMPDEST DUP2 ADD PUSH1 0x20 DUP6 LT ISZERO PUSH2 0x11F2 JUMPI DUP2 SWAP1 POP JUMPDEST PUSH2 0x1206 PUSH2 0x11FE DUP6 PUSH2 0x10BE JUMP JUMPDEST DUP4 ADD DUP3 PUSH2 0x11A5 JUMP JUMPDEST POP POP JUMPDEST POP POP POP JUMP JUMPDEST PUSH1 0x0 DUP3 DUP3 SHR SWAP1 POP SWAP3 SWAP2 POP POP JUMP JUMPDEST PUSH1 0x0 PUSH2 0x122C PUSH1 0x0 NOT DUP5 PUSH1 0x8 MUL PUSH2 0x120E JUMP JUMPDEST NOT DUP1 DUP4 AND SWAP2 POP POP SWAP3 SWAP2 POP POP JUMP JUMPDEST PUSH1 0x0 PUSH2 0x1245 DUP4 DUP4 PUSH2 0x121B JUMP JUMPDEST SWAP2 POP DUP3 PUSH1 0x2 MUL DUP3 OR SWAP1 POP SWAP3 SWAP2 POP POP JUMP JUMPDEST PUSH2 0x125E DUP3 PUSH2 0x103E JUMP JUMPDEST PUSH8 0xFFFFFFFFFFFFFFFF DUP2 GT ISZERO PUSH2 0x1277 JUMPI PUSH2 0x1276 PUSH2 0xA07 JUMP JUMPDEST JUMPDEST PUSH2 0x1281 DUP3 SLOAD PUSH2 0x1078 JUMP JUMPDEST PUSH2 0x128C DUP3 DUP3 DUP6 PUSH2 0x11C8 JUMP JUMPDEST PUSH1 0x0 PUSH1 0x20 SWAP1 POP PUSH1 0x1F DUP4 GT PUSH1 0x1 DUP2 EQ PUSH2 0x12BF JUMPI PUSH1 0x0 DUP5 ISZERO PUSH2 0x12AD JUMPI DUP3 DUP8 ADD MLOAD SWAP1 POP JUMPDEST PUSH2 0x12B7 DUP6 DUP3 PUSH2 0x1239 JUMP JUMPDEST DUP7 SSTORE POP PUSH2 0x131F JUMP JUMPDEST PUSH1 0x1F NOT DUP5 AND PUSH2 0x12CD DUP7 PUSH2 0x10A9 JUMP JUMPDEST PUSH1 0x0 JUMPDEST DUP3 DUP2 LT ISZERO PUSH2 0x12F5 JUMPI DUP5 DUP10 ADD MLOAD DUP3 SSTORE PUSH1 0x1 DUP3 ADD SWAP2 POP PUSH1 0x20 DUP6 ADD SWAP5 POP PUSH1 0x20 DUP2 ADD SWAP1 POP PUSH2 0x12D0 JUMP JUMPDEST DUP7 DUP4 LT ISZERO PUSH2 0x1312 JUMPI DUP5 DUP10 ADD MLOAD PUSH2 0x130E PUSH1 0x1F DUP10 AND DUP3 PUSH2 0x121B JUMP JUMPDEST DUP4 SSTORE POP JUMPDEST PUSH1 0x1 PUSH1 0x2 DUP9 MUL ADD DUP9 SSTORE POP POP POP JUMPDEST POP POP POP POP POP POP JUMP JUMPDEST PUSH32 0x596F757265206E6F74206A756467650000000000000000000000000000000000 PUSH1 0x0 DUP3 ADD MSTORE POP JUMP JUMPDEST PUSH1 0x0 PUSH2 0x135D PUSH1 0xF DUP4 PUSH2 0xEE7 JUMP JUMPDEST SWAP2 POP PUSH2 0x1368 DUP3 PUSH2 0x1327 JUMP JUMPDEST PUSH1 0x20 DUP3 ADD SWAP1 POP SWAP2 SWAP1 POP JUMP JUMPDEST PUSH1 0x0 PUSH1 0x20 DUP3 ADD SWAP1 POP DUP2 DUP2 SUB PUSH1 0x0 DUP4 ADD MSTORE PUSH2 0x138C DUP2 PUSH2 0x1350 JUMP JUMPDEST SWAP1 POP SWAP2 SWAP1 POP JUMP INVALID LOG2 PUSH5 0x6970667358 0x22 SLT KECCAK256 0x4E 0x4A PUSH11 0xEDBAF2E8F178A1C7658E1B PUSH6 0x2A173729426E 0x1E LOG4 PUSH21 0x382540A120D39D7464736F6C634300081100330000 "},"methodIdentifiers":{"newJudge(address,string,string,bool)":"4e99862d","newTeam(address,address[],string[],string,bool)":"43c4a075","setWin()":"10de0744","totalTeams()":"654c6daf","vote(address)":"6dd7d8ea"}}}}}