{
  "_format": "hh-sol-artifact-1",
  "contractName": "hackaton",
  "sourceName": "contracts/hackatonV1.sol",
  "abi": [
    {
      "inputs": [
        {
          "internalType": "string",
          "name": "name_",
          "type": "string"
        },
        {
          "internalType": "string",
          "name": "description_",
          "type": "string"
        },
        {
          "internalType": "uint256",
          "name": "participationLimit_",
          "type": "uint256"
        },
        {
          "internalType": "uint256",
          "name": "judgeLimit_",
          "type": "uint256"
        },
        {
          "internalType": "uint256",
          "name": "durationDays_",
          "type": "uint256"
        }
      ],
      "stateMutability": "nonpayable",
      "type": "constructor"
    },
    {
      "inputs": [
        {
          "internalType": "address",
          "name": "owner_",
          "type": "address"
        },
        {
          "internalType": "string",
          "name": "name_",
          "type": "string"
        },
        {
          "internalType": "string",
          "name": "description_",
          "type": "string"
        },
        {
          "internalType": "bool",
          "name": "approve_",
          "type": "bool"
        }
      ],
      "name": "newJudge",
      "outputs": [],
      "stateMutability": "nonpayable",
      "type": "function"
    },
    {
      "inputs": [
        {
          "internalType": "address",
          "name": "owner_",
          "type": "address"
        },
        {
          "internalType": "address[]",
          "name": "participants_",
          "type": "address[]"
        },
        {
          "internalType": "string[]",
          "name": "names_",
          "type": "string[]"
        },
        {
          "internalType": "string",
          "name": "description_",
          "type": "string"
        },
        {
          "internalType": "bool",
          "name": "approve_",
          "type": "bool"
        }
      ],
      "name": "newTeam",
      "outputs": [],
      "stateMutability": "nonpayable",
      "type": "function"
    },
    {
      "inputs": [],
      "name": "setWin",
      "outputs": [
        {
          "internalType": "address",
          "name": "",
          "type": "address"
        }
      ],
      "stateMutability": "view",
      "type": "function"
    },
    {
      "inputs": [],
      "name": "totalTeams",
      "outputs": [
        {
          "internalType": "uint256",
          "name": "",
          "type": "uint256"
        }
      ],
      "stateMutability": "view",
      "type": "function"
    },
    {
      "inputs": [
        {
          "internalType": "address",
          "name": "team_",
          "type": "address"
        }
      ],
      "name": "vote",
      "outputs": [],
      "stateMutability": "nonpayable",
      "type": "function"
    }
  ],
  "bytecode": "0x608060405260006006553480156200001657600080fd5b5060405162001adf38038062001adf83398181016040528101906200003c91906200029e565b326000806101000a81548173ffffffffffffffffffffffffffffffffffffffff021916908373ffffffffffffffffffffffffffffffffffffffff16021790555084600190816200008d9190620005a5565b5083600290816200009f9190620005a5565b5082600381905550816004819055506201518081620000bf9190620006bb565b600581905550505050505062000706565b6000604051905090565b600080fd5b600080fd5b600080fd5b600080fd5b6000601f19601f8301169050919050565b7f4e487b7100000000000000000000000000000000000000000000000000000000600052604160045260246000fd5b6200013982620000ee565b810181811067ffffffffffffffff821117156200015b576200015a620000ff565b5b80604052505050565b600062000170620000d0565b90506200017e82826200012e565b919050565b600067ffffffffffffffff821115620001a157620001a0620000ff565b5b620001ac82620000ee565b9050602081019050919050565b60005b83811015620001d9578082015181840152602081019050620001bc565b60008484015250505050565b6000620001fc620001f68462000183565b62000164565b9050828152602081018484840111156200021b576200021a620000e9565b5b62000228848285620001b9565b509392505050565b600082601f830112620002485762000247620000e4565b5b81516200025a848260208601620001e5565b91505092915050565b6000819050919050565b620002788162000263565b81146200028457600080fd5b50565b60008151905062000298816200026d565b92915050565b600080600080600060a08688031215620002bd57620002bc620000da565b5b600086015167ffffffffffffffff811115620002de57620002dd620000df565b5b620002ec8882890162000230565b955050602086015167ffffffffffffffff81111562000310576200030f620000df565b5b6200031e8882890162000230565b9450506040620003318882890162000287565b9350506060620003448882890162000287565b9250506080620003578882890162000287565b9150509295509295909350565b600081519050919050565b7f4e487b7100000000000000000000000000000000000000000000000000000000600052602260045260246000fd5b60006002820490506001821680620003b757607f821691505b602082108103620003cd57620003cc6200036f565b5b50919050565b60008190508160005260206000209050919050565b60006020601f8301049050919050565b600082821b905092915050565b600060088302620004377fffffffffffffffffffffffffffffffffffffffffffffffffffffffffffffffff82620003f8565b620004438683620003f8565b95508019841693508086168417925050509392505050565b6000819050919050565b600062000486620004806200047a8462000263565b6200045b565b62000263565b9050919050565b6000819050919050565b620004a28362000465565b620004ba620004b1826200048d565b84845462000405565b825550505050565b600090565b620004d1620004c2565b620004de81848462000497565b505050565b5b818110156200050657620004fa600082620004c7565b600181019050620004e4565b5050565b601f82111562000555576200051f81620003d3565b6200052a84620003e8565b810160208510156200053a578190505b620005526200054985620003e8565b830182620004e3565b50505b505050565b600082821c905092915050565b60006200057a600019846008026200055a565b1980831691505092915050565b600062000595838362000567565b9150826002028217905092915050565b620005b08262000364565b67ffffffffffffffff811115620005cc57620005cb620000ff565b5b620005d882546200039e565b620005e58282856200050a565b600060209050601f8311600181146200061d576000841562000608578287015190505b62000614858262000587565b86555062000684565b601f1984166200062d86620003d3565b60005b82811015620006575784890151825560018201915060208501945060208101905062000630565b8683101562000677578489015162000673601f89168262000567565b8355505b6001600288020188555050505b505050505050565b7f4e487b7100000000000000000000000000000000000000000000000000000000600052601160045260246000fd5b6000620006c88262000263565b9150620006d58362000263565b9250828202620006e58162000263565b91508282048414831517620006ff57620006fe6200068c565b5b5092915050565b6113c980620007166000396000f3fe608060405234801561001057600080fd5b50600436106100575760003560e01c806310de07441461005c57806343c4a0751461007a5780634e99862d14610096578063654c6daf146100b25780636dd7d8ea146100d0575b600080fd5b6100646100ec565b6040516100719190610996565b60405180910390f35b610094600480360381019061008f9190610d18565b6102a0565b005b6100b060048036038101906100ab9190610de7565b6104aa565b005b6100ba61064c565b6040516100c79190610e9f565b60405180910390f35b6100ea60048036038101906100e59190610eba565b610656565b005b60008060009054906101000a900473ffffffffffffffffffffffffffffffffffffffff1673ffffffffffffffffffffffffffffffffffffffff163373ffffffffffffffffffffffffffffffffffffffff161461017d576040517f08c379a000000000000000000000000000000000000000000000000000000000815260040161017490610f44565b60405180910390fd5b6000600760008154811061019457610193610f64565b5b9060005260206000200160009054906101000a900473ffffffffffffffffffffffffffffffffffffffff16905060005b600780549050811015610298578173ffffffffffffffffffffffffffffffffffffffff16600782815481106101fc576101fb610f64565b5b9060005260206000200160009054906101000a900473ffffffffffffffffffffffffffffffffffffffff1673ffffffffffffffffffffffffffffffffffffffff161115610285576007818154811061025757610256610f64565b5b9060005260206000200160009054906101000a900473ffffffffffffffffffffffffffffffffffffffff1691505b808061029090610fc2565b9150506101c4565b508091505090565b60008054906101000a900473ffffffffffffffffffffffffffffffffffffffff1673ffffffffffffffffffffffffffffffffffffffff163373ffffffffffffffffffffffffffffffffffffffff161461032e576040517f08c379a000000000000000000000000000000000000000000000000000000000815260040161032590610f44565b60405180910390fd5b600160066000828254610341919061100a565b925050819055506040518060c00160405280600654815260200185815260200184815260200183815260200182151581526020016000815250600960008773ffffffffffffffffffffffffffffffffffffffff1673ffffffffffffffffffffffffffffffffffffffff1681526020019081526020016000206000820151816000015560208201518160010190805190602001906103df9291906107f1565b5060408201518160020190805190602001906103fc92919061087b565b5060608201518160030190816104129190611255565b5060808201518160040160006101000a81548160ff02191690831515021790555060a082015181600501559050506007859080600181540180825580915050600190039060005260206000200160009091909190916101000a81548173ffffffffffffffffffffffffffffffffffffffff021916908373ffffffffffffffffffffffffffffffffffffffff1602179055505050505050565b60008054906101000a900473ffffffffffffffffffffffffffffffffffffffff1673ffffffffffffffffffffffffffffffffffffffff163373ffffffffffffffffffffffffffffffffffffffff1614610538576040517f08c379a000000000000000000000000000000000000000000000000000000000815260040161052f90610f44565b60405180910390fd5b60405180608001604052808573ffffffffffffffffffffffffffffffffffffffff168152602001848152602001838152602001821515815250600860008673ffffffffffffffffffffffffffffffffffffffff1673ffffffffffffffffffffffffffffffffffffffff16815260200190815260200160002060008201518160000160006101000a81548173ffffffffffffffffffffffffffffffffffffffff021916908373ffffffffffffffffffffffffffffffffffffffff160217905550602082015181600101908161060c9190611255565b5060408201518160020190816106229190611255565b5060608201518160030160006101000a81548160ff02191690831515021790555090505050505050565b6000600654905090565b600860003373ffffffffffffffffffffffffffffffffffffffff1673ffffffffffffffffffffffffffffffffffffffff16815260200190815260200160002060030160009054906101000a900460ff166106e5576040517f08c379a00000000000000000000000000000000000000000000000000000000081526004016106dc90611373565b60405180910390fd5b600a60003373ffffffffffffffffffffffffffffffffffffffff1673ffffffffffffffffffffffffffffffffffffffff16815260200190815260200160002060009054906101000a900460ff161561073c57600080fd5b6001600a60003373ffffffffffffffffffffffffffffffffffffffff1673ffffffffffffffffffffffffffffffffffffffff16815260200190815260200160002060006101000a81548160ff0219169083151502179055506001600960008373ffffffffffffffffffffffffffffffffffffffff1673ffffffffffffffffffffffffffffffffffffffff16815260200190815260200160002060050160008282546107e7919061100a565b9250508190555050565b82805482825590600052602060002090810192821561086a579160200282015b828111156108695782518260006101000a81548173ffffffffffffffffffffffffffffffffffffffff021916908373ffffffffffffffffffffffffffffffffffffffff16021790555091602001919060010190610811565b5b50905061087791906108d4565b5090565b8280548282559060005260206000209081019282156108c3579160200282015b828111156108c25782518290816108b29190611255565b509160200191906001019061089b565b5b5090506108d091906108f1565b5090565b5b808211156108ed5760008160009055506001016108d5565b5090565b5b8082111561091157600081816109089190610915565b506001016108f2565b5090565b50805461092190611078565b6000825580601f106109335750610952565b601f01602090049060005260206000209081019061095191906108d4565b5b50565b600073ffffffffffffffffffffffffffffffffffffffff82169050919050565b600061098082610955565b9050919050565b61099081610975565b82525050565b60006020820190506109ab6000830184610987565b92915050565b6000604051905090565b600080fd5b600080fd5b6109ce81610975565b81146109d957600080fd5b50565b6000813590506109eb816109c5565b92915050565b600080fd5b6000601f19601f8301169050919050565b7f4e487b7100000000000000000000000000000000000000000000000000000000600052604160045260246000fd5b610a3f826109f6565b810181811067ffffffffffffffff82111715610a5e57610a5d610a07565b5b80604052505050565b6000610a716109b1565b9050610a7d8282610a36565b919050565b600067ffffffffffffffff821115610a9d57610a9c610a07565b5b602082029050602081019050919050565b600080fd5b6000610ac6610ac184610a82565b610a67565b90508083825260208201905060208402830185811115610ae957610ae8610aae565b5b835b81811015610b125780610afe88826109dc565b845260208401935050602081019050610aeb565b5050509392505050565b600082601f830112610b3157610b306109f1565b5b8135610b41848260208601610ab3565b91505092915050565b600067ffffffffffffffff821115610b6557610b64610a07565b5b602082029050602081019050919050565b600080fd5b600067ffffffffffffffff821115610b9657610b95610a07565b5b610b9f826109f6565b9050602081019050919050565b82818337600083830152505050565b6000610bce610bc984610b7b565b610a67565b905082815260208101848484011115610bea57610be9610b76565b5b610bf5848285610bac565b509392505050565b600082601f830112610c1257610c116109f1565b5b8135610c22848260208601610bbb565b91505092915050565b6000610c3e610c3984610b4a565b610a67565b90508083825260208201905060208402830185811115610c6157610c60610aae565b5b835b81811015610ca857803567ffffffffffffffff811115610c8657610c856109f1565b5b808601610c938982610bfd565b85526020850194505050602081019050610c63565b5050509392505050565b600082601f830112610cc757610cc66109f1565b5b8135610cd7848260208601610c2b565b91505092915050565b60008115159050919050565b610cf581610ce0565b8114610d0057600080fd5b50565b600081359050610d1281610cec565b92915050565b600080600080600060a08688031215610d3457610d336109bb565b5b6000610d42888289016109dc565b955050602086013567ffffffffffffffff811115610d6357610d626109c0565b5b610d6f88828901610b1c565b945050604086013567ffffffffffffffff811115610d9057610d8f6109c0565b5b610d9c88828901610cb2565b935050606086013567ffffffffffffffff811115610dbd57610dbc6109c0565b5b610dc988828901610bfd565b9250506080610dda88828901610d03565b9150509295509295909350565b60008060008060808587031215610e0157610e006109bb565b5b6000610e0f878288016109dc565b945050602085013567ffffffffffffffff811115610e3057610e2f6109c0565b5b610e3c87828801610bfd565b935050604085013567ffffffffffffffff811115610e5d57610e5c6109c0565b5b610e6987828801610bfd565b9250506060610e7a87828801610d03565b91505092959194509250565b6000819050919050565b610e9981610e86565b82525050565b6000602082019050610eb46000830184610e90565b92915050565b600060208284031215610ed057610ecf6109bb565b5b6000610ede848285016109dc565b91505092915050565b600082825260208201905092915050565b7f596f757265206e6f74206f776e65720000000000000000000000000000000000600082015250565b6000610f2e600f83610ee7565b9150610f3982610ef8565b602082019050919050565b60006020820190508181036000830152610f5d81610f21565b9050919050565b7f4e487b7100000000000000000000000000000000000000000000000000000000600052603260045260246000fd5b7f4e487b7100000000000000000000000000000000000000000000000000000000600052601160045260246000fd5b6000610fcd82610e86565b91507fffffffffffffffffffffffffffffffffffffffffffffffffffffffffffffffff8203610fff57610ffe610f93565b5b600182019050919050565b600061101582610e86565b915061102083610e86565b925082820190508082111561103857611037610f93565b5b92915050565b600081519050919050565b7f4e487b7100000000000000000000000000000000000000000000000000000000600052602260045260246000fd5b6000600282049050600182168061109057607f821691505b6020821081036110a3576110a2611049565b5b50919050565b60008190508160005260206000209050919050565b60006020601f8301049050919050565b600082821b905092915050565b60006008830261110b7fffffffffffffffffffffffffffffffffffffffffffffffffffffffffffffffff826110ce565b61111586836110ce565b95508019841693508086168417925050509392505050565b6000819050919050565b600061115261114d61114884610e86565b61112d565b610e86565b9050919050565b6000819050919050565b61116c83611137565b61118061117882611159565b8484546110db565b825550505050565b600090565b611195611188565b6111a0818484611163565b505050565b5b818110156111c4576111b960008261118d565b6001810190506111a6565b5050565b601f821115611209576111da816110a9565b6111e3846110be565b810160208510156111f2578190505b6112066111fe856110be565b8301826111a5565b50505b505050565b600082821c905092915050565b600061122c6000198460080261120e565b1980831691505092915050565b6000611245838361121b565b9150826002028217905092915050565b61125e8261103e565b67ffffffffffffffff81111561127757611276610a07565b5b6112818254611078565b61128c8282856111c8565b600060209050601f8311600181146112bf57600084156112ad578287015190505b6112b78582611239565b86555061131f565b601f1984166112cd866110a9565b60005b828110156112f5578489015182556001820191506020850194506020810190506112d0565b86831015611312578489015161130e601f89168261121b565b8355505b6001600288020188555050505b505050505050565b7f596f757265206e6f74206a756467650000000000000000000000000000000000600082015250565b600061135d600f83610ee7565b915061136882611327565b602082019050919050565b6000602082019050818103600083015261138c81611350565b905091905056fea26469706673582212204e4a6aedbaf2e8f178a1c7658e1b652a173729426e1ea474382540a120d39d7464736f6c63430008110033",
  "linkReferences": {},
  "deployedLinkReferences": {}
}